```
    [  1   bytes   ] txType = 0
    [  8   bytes   ] nonce
    [  32  bytes   ] gasPrice
    [  8  bytes    ] gasLimit
    [  1   bytes   ] deployment ('0' or '1')
    [  20  bytes   ] to (0 if it is a deployment)
    [  32  bytes   ] value
    [  3   bytes   ] dataLength
    [  XX  bytes   ] data
    [   8 bytes    ] chainID
    [  20  bytes   ] from
```

{
    "from": "0x4d5Cf5032B2a844602278b01199ED191A86c93ff",
    "to": "0x1275fbb540c8efc58b812ba83b0d0b8b9917ae98",
    "nonce": 0,
    "value": "0",
    "contractName": "Test",
    "function": "setFirst",
    "params": [
      7
    ],
    "chainId": 1000,
    "reason": "",
    "gasLimit": 100000,
    "gasPrice": "1000000000",
    "data": "0x5ef3d3dd0000000000000000000000000000000000000000000000000000000000000007",
    "customRawTx": "0xf84a80843b9aca00830186a0941275fbb540c8efc58b812ba83b0d0b8b9917ae9880a45ef3d3dd00000000000000000000000000000000000000000000000000000000000000078203e880803943e5a952e27d85c91f61610159fd8caf0dd68db76a1df7fb52934156d9ec935ceec6b0f908e36ee8b2c70350b3813d72558572ff95deac79069168e68726571cff",
    "rawTx": "0xf88a80843b9aca00830186a0941275fbb540c8efc58b812ba83b0d0b8b9917ae9880a45ef3d3dd00000000000000000000000000000000000000000000000000000000000000078207f4a03943e5a952e27d85c91f61610159fd8caf0dd68db76a1df7fb52934156d9ec93a05ceec6b0f908e36ee8b2c70350b3813d72558572ff95deac79069168e6872657"
  }

0000000000000000000000000000000000000000000000000000000000000000000000003b9aca0000000000000186a0001275fbb540c8efc58b812ba83b0d0b8b9917ae980000000000000000000000000000000000000000000000000000000000000000000024
5ef3d3dd00000000000000000000000000000000000000000000000000000000

0x0b73e6af6f00000000

f8
4a
80
843b9aca00
830186a0
941275fbb540c8efc58b812ba83b0d0b8b9917ae98 --> to
80
a4
5ef3d3dd0000000000000000000000000000000000000000000000000000000000000007
8203e8
80
80
3943e5a952e27d85c91f61610159fd8caf0dd68db76a1df7fb52934156d9ec935ceec6b0f908e36ee8b2c70350b3813d72558572ff95deac79069168e68726571cffee80843b9aca00830186a0944d5cf5032b2a844602278b01199ed191a86c93ff88016345785d8a0000808203e880801cee7e01dc62f69a12c3510c6d64de04ee6346d84b6a017f3e786c7d87f963e75d8cc91fa983cd6d9cf55fff80d73bd26cd333b0f098acc1e58edb1fd484ad731bff